:020000040800F2
:100000000028002085010008D3010008DF01000856
:10001000E5010008EB010008F10100080000000004
:10002000000000000000000000000000F7010008D0
:1000300003020008000000000F0200081B02000875
:10004000D1010008D1010008D1010008D101000848
:10005000D1010008D1010008D1010008D101000838
:10006000D1010008D1010008D1010008D101000828
:10007000D1010008D1010008D1010008D101000818
:10008000D1010008D1010008D1010008D101000808
:10009000D1010008D1010008D1010008D1010008F8
:1000A000D1010008D1010008D1010008D1010008E8
:1000B000D1010008D1010008D1010008D1010008D8
:1000C000D1010008D1010008D1010008D1010008C8
:1000D000D101000829080008D1010008D101000859
:1000E000D1010008D1010008D1010008D1010008A8
:1000F000D1010008D1010008D1010008D101000898
:10010000D1010008D1010008D1010008D101000887
:10011000D1010008D1010008D1010008D101000877
:10012000D1010008D1010008D1010008D101000867
:1001300010B5054C237833B9044B13B10448AFF321
:1001400000800123237010BD10010020000000007A
:10015000C826000808B5034B1BB103490348AFF399
:10016000008008BD0000000014010020C82600081F
:1001700010F8012B11F8013B012A28BF9A42F7D051
:10018000D01A70470D4D0E4C05E02A46151D23462A
:100190001C1D12681A600B4B9C42F6D30A4C03E0FC
:1001A00023461C1D00221A60084B9C42F8D300F025
:1001B000FBF801F0EBF800F05FFBFEE78C2D000888
:1001C0000000002010010020100100207801002014
:1001D000FEE780B400AF00BFBD4680BC704780B46E
:1001E00000AFFEE780B400AFFEE780B400AFFEE7EB
:1001F00080B400AFFEE780B400AF00BFBD4680BC56
:10020000704780B400AF00BFBD4680BC704780B46B
:1002100000AF00BFBD4680BC704780B500AF00F0A6
:10022000FCFA00BF80BD80B400AF01231846BD4674
:1002300080BC704780B582B000AF7860396000F054
:10024000D9FE034616221A604FF0FF3318460837CE
:10025000BD4680BD80B582B000AF78604FF0FF3101
:100260007868FFF7E7FFFEE780B586B000AFF8607B
:10027000B9607A6000237B610AE0AFF30080014639
:10028000BB685A1CBA60CAB21A707B6901337B61C1
:100290007A697B689A42F0DB7B6818461837BD465E
:1002A00080BD80B586B000AFF860B9607A60002389
:1002B0007B6109E0BB685A1CBA601B78184600F0E5
:1002C00033FA7B6901337B617A697B689A42F1DB9F
:1002D0007B6818461837BD4680BD80B483B000AF38
:1002E00078604FF0FF3318460C37BD4680BC70472E
:1002F00080B483B000AF786039603B684FF400523F
:100300005A60002318460C37BD4680BC704780B445
:1003100083B000AF7860012318460C37BD4680BC1F
:10032000704780B485B000AFF860B9607A60002390
:1003300018461437BD4680BC7047000080B586B0B3
:1003400000AF7860144A154BD31A7B617B693B611F
:10035000134B1B68002B02D1114B124A1A60104B31
:100360001A687B6813443A699A4207D200F042FE49
:1003700003460C221A604FF0FF3309E0084B1B685C
:10038000FB60074B1A687B681344054A1360FB68DF
:1003900018461837BD4680BD002800200004000024
:1003A0002C0100207801002080B500AF154B1B68A0
:1003B000144A43F001031360124B5A681149124B5F
:1003C00013404B600F4B1B680E4A23F0847323F4D9
:1003D000803313600B4B1B680A4A23F4802313609D
:1003E000084B5B68074A23F4FE035360054B4FF448
:1003F0001F029A6000F00CF8044B4FF000629A6004
:1004000000BF80BD001002400000FFF800ED00E0DA
:1004100080B500AF00F002F800BF80BD80B483B0AB
:1004200000AF00237B6000233B603A4B1B68394AD6
:1004300043F480331360374B1B6803F400333B6095
:100440007B6801337B603B68002B03D17B68B3F58D
:10045000A06FF0D12F4B1B6803F40033002B02D0A8
:1004600001233B6001E000233B603B68012B4BD143
:10047000294B1B68284A43F010031360264B1B6866
:10048000254A23F007031360234B1B68224A43F0DD
:10049000020313601F4B1F4A5B6853601D4B1D4ACC
:1004A0005B6853601B4B5B681A4A43F4806353607C
:1004B000184B5B68174A23F47C135360154B5B6839
:1004C000144A43F4E8135360124B1B68114A43F07B
:1004D0008073136000BF0F4B1B6803F00073002B89
:1004E000F9D00C4B5B680B4A23F003035360094BB4
:1004F0005B68084A43F00203536000BF054B5B682A
:1005000003F00C03082BF9D100BF0C37BD4680BCAB
:10051000704700BF001002400020024080B400AFCE
:100520000D4B9B690C4A43F0100393610B4B5B68C6
:100530000A4A23F470035360084B5B68074A43F48C
:1005400040135360054BDB68044A23F40053D36027
:1005500000BFBD4680BC7047001002400010014043
:1005600080B400AF044BDB68034A83F40053D360CC
:1005700000BFBD4680BC70470010014080B483B00E
:1005800000AF7860054A7B6843F0BF6343F40033F3
:10059000D36000BF0C37BD4680BC704700ED00E063
:1005A00080B483B000AF0346FB7197F90730002B8E
:1005B0000BDBFB7903F01F02064997F907305B0953
:1005C000012000FA02F241F8232000BF0C37BD469B
:1005D00080BC704700E100E080B483B000AF034608
:1005E0003960FB7197F90730002B0ADB3B68DAB200
:1005F0000C4997F907301201D2B20B4483F800235B
:100600000AE03B68DAB20849FB7903F00F03043BC8
:100610001201D2B20B441A7600BF0C37BD4680BC23
:10062000704700BF00E100E000ED00E080B500AFE2
:100630004FF4A060FFF7A2FF02212520FFF7CCFFB7
:1006400000214FF0FF30FFF7C7FF2520FFF7A8FF7D
:100650004FF0FF30FFF7A4FF00BF80BD80B400AFB4
:10066000094B1B68094AA2FB03239B09084A013B6B
:100670005360074B00229A60054B07221A6000BFA7
:10068000BD4680BC704700BF00000020D34D621003
:1006900010E000E080B483B000AF78601E4B9B692F
:1006A0001D4A43F0040393611B4B9B691A4A43F4B0
:1006B00080439361194B5B68184A23F0F003536041
:1006C000164B5B68154A43F0B0035360134B5B68ED
:1006D000124A23F470635360104B5B680F4A43F473
:1006E000806353600E4B1A687B68B2FBF3F20D4BCC
:1006F00092B21A810B4B42F20C029A81094B9B89F0
:100700009BB2084A43F020039BB2938100BF0C3791
:10071000BD4680BC704700BF001002400008014089
:10072000000000200038014080B582B000AF786042
:100730007B68DBB2184600F005F87B68184608377E
:10074000BD4680BD80B483B000AF0346FB7100BFDF
:10075000074B1B889BB203F08003002BF8D0044B9F
:10076000FA7992B29A8000BF0C37BD4680BC7047C0
:100770000038014080B582B000AF786006E07B6849
:100780005A1C7A601B781846FFF7DCFF7B681B78E1
:10079000002BF4D100BF00BF0837BD4680BD00006C
:1007A00080B483B000AF7860396000BF094B1B880C
:1007B0009BB203F02003002BF8D0064B9B889BB222
:1007C000DAB23B681A703B681B7818460C37BD4696
:1007D00080BC7047003801400FB480B5C2B000AF94
:1007E00007F58A73C7F800313846D7F80031D7F8D3
:1007F00010214FF4807101F03BF8C7F804013B462B
:100800001846FFF7B7FFD7F80431184607F5847785
:10081000BD46BDE8804004B0704780B500AFFFF72B
:100820009FFE00BF80BD000080B582B002AF0D4BBF
:100830001B889BB203F02003002B0FD00A4B0093C0
:100840000A4B0B4A0B49002000F018F9054B1B8896
:100850009BB2044A23F020039BB2138000BFBD4625
:1008600080BD00BF00380140240000203C01002072
:10087000040000203001002080B500AFFFF7EEFE3D
:10088000FFF74CFEFFF7D2FE0548FFF703FF0549CF
:10089000054800F00DF8054800F0ABFAFBE700BF93
:1008A00090D003002400002004000020300100202C
:1008B00080B582B000AF786039607B6801221A7021
:1008C0007B6800225A707B6800229A707B68002245
:1008D000DA707B6800221A717B68053314220021CC
:1008E000184600F07AFD4C48FFF776FF4B48FFF7BB
:1008F00073FF0123002201214948FFF76DFF3B6888
:10090000002B02D1474B3B6067E03B681B68002B24
:1009100006D03B681B6819464348FFF75DFF02E0BD
:10092000424800F0C1FE3B68DB68002B06D03B6804
:10093000DB6819463E48FFF74FFF05E03B683D4A3C
:10094000DA603D4800F0B0FE3B681B69002B06D022
:100950003B681B6919463948FFF73EFF02E03848FB
:1009600000F0A2FE3B685B69002B06D03B685B6928
:1009700019463448FFF730FF02E0334800F094FE98
:100980003B689B69002B06D03B689B6919462F4842
:10099000FFF722FF02E02E4800F086FE3B685B680E
:1009A000002B06D03B685B6819462A48FFF714FF06
:1009B00005E03B681F4A5A60274800F075FE3B6817
:1009C0009B68002B06D03B689B6819462348FFF7BD
:1009D00003FF02E0224800F067FE224800F064FEB8
:1009E0002148FFF7F9FE2148FFF7F6FE204800F006
:1009F0005BFE3B6859683B685B691A461D48FFF718
:100A0000EBFE1D4B1B689B68184600F0B7FB00BF50
:100A10000837BD4680BD00BF2827000830270008E2
:100A200034270008900000205027000864270008A1
:100A30008427000898270008A0270008C02700087E
:100A4000D8270008F82700080C2800082C280008E0
:100A50003C28000858280008642800087C28000862
:100A60008C280008A8280008C028000808290008C9
:100A70004029000868290008AC00002080B584B037
:100A800000AFF860B9607A603B603748FFF7A4FEBA
:100A90007B68DB697A6801321146F86898477B68A1
:100AA0005B780D2B03D07B685B780A2B20D17B68A9
:100AB0009B781A467B68134400225A710A2000F082
:100AC00071FD3A687968B86800F0B0F97B68002277
:100AD0009A70BB695968BB695B691A462348FFF77E
:100AE0007BFE234B1B689B68184600F047FB37E0F2
:100AF0007B685B78082B03D07B685B787F2B13D1F6
:100B00007B689B78002B2BD07B689B78013BDAB20B
:100B10007B689A701748FFF75FFE154B1B689B6850
:100B2000184600F02BFB1BE07B689B78122B17D834
:100B30007B689B785A1CD1B27A68917019467B68A1
:100B40005A787B680B445A717B685B78184600F0D2
:100B500029FD074B1B689B68184600F00FFBFFE759
:100B600000BF1037BD4680BD7C29000868290008F9
:100B7000AC0000208429000880B586B000AFF86082
:100B8000B9607A603B605A49B868FFF7F1FA0346EA
:100B9000002B03D1574800F087FDA4E05649B86800
:100BA000FFF7E6FA0346002B10D1544800F07CFD15
:100BB000534B5B68002B05D0514B5B680021002034
:100BC000984790E04F48FFF707FE8CE04E49B86821
:100BD000FFF7CEFA0346002B10D14C4800F064FD1D
:100BE000474B9B68002B05D0454B9B68002100209C
:100BF000984778E04648FFF7EFFD74E04549B8684C
:100C0000FFF7B6FA0346002B17D1434800F04CFD1E
:100C100000237B610AE0414A7B6952F82330194680
:100C20003F48FFF7D9FD7B6901337B613B4A7B6914
:100C300052F82330002BEED155E03A49B868FFF75F
:100C400097FA0346002B0DD12D4B1B68002B05D0C6
:100C50002B4B1B6839687868984744E03248FFF7A7
:100C6000BBFD40E03149B868FFF782FA0346002B2C
:100C700010D12F4800F018FD214B1B69002B05D027
:100C80001F4B1B690021002098472CE02948FFF7E3
:100C9000A3FD28E02849B868FFF76AFA0346002B4D
:100CA00009D1264800F000FDFB6801221A71244892
:100CB000FFF792FD17E02349B868FFF759FA03469A
:100CC000002B0DD10E4B5B69002B05D00C4B5B69E3
:100CD00039687868984706E01B48FFF77DFD02E019
:100CE0004FF0FF3300E0002318461837BD4680BDA3
:100CF00088290008C829000890290008D829000878
:100D000050010020E829000898290008282A000836
:100D1000382A0008A42900087C2A00084000002086
:100D2000902A0008C4290008982A0008B42900085D
:100D3000D42A0008E82A0008AC290008282B00085B
:100D400028270008BC290008342B000880B485B08F
:100D500000AF786039600023FB6039E0FA68134621
:100D60009B0013449B001A463B6813441B79002BDD
:100D70002BD0FA6813469B0013449B001A463B682D
:100D800013441A697B681A60FA6813469B0013447F
:100D90009B001A463B681344DA687B689A60FA68DD
:100DA00013469B0013449B001A463B6813449A6801
:100DB0007B685A60FA6813469B0013449B001A46EE
:100DC0003B68134400221A710FE0FB680133FB609B
:100DD000FA6813469B0013449B001A463B68134471
:100DE0001B68002BBAD10023FB601437BD4680BCC2
:100DF000704780B582B000AF78607B681B68002BBD
:100E000010D07B681B687A6890687A6852681146CF
:100E100098477B6800229A607B6800225A607B6852
:100E200000221A6000BF0837BD4680BD80B5A0B063
:100E300000AFF860B9607A60BB681B7883F001038B
:100E4000DBB2002B03D06548FFF7C6FCC3E0BB68EC
:100E50000533FB660023FB676149F86E00F080FCF8
:100E6000B8670EE0FB6F9B0080333B44BA6F43F8DA
:100E70006C2CFB6F0133FB675949002000F070FCBC
:100E8000B867BB6F002B02D0FB6F132BEADDFB6F43
:100E9000002B00F09D807B69BB66FB6F012B03DD9F
:100EA00007F11403043300E000237B6600237B6713
:100EB00030E04C4A7B6F52F82330002B2ED0494A49
:100EC0007B6F52F823301946B86EFFF751F903468D
:100ED000002B1CD1434A7B6F52F8233019464248FD
:100EE000FFF77AFC3F4A7B6F52F823107B6EFA6F54
:100EF000B868FFF741FE0346002B6BDA394A7B6F77
:100F000052F8233019463948FFF766FC62E07B6FE0
:100F100001337B677B6F132BCBDD00E000BF002329
:100F20003B6742E03A6F13469B0013449B001A460E
:100F30007B6813441B681946B86EFFF719F903461E
:100F4000002B2FD13A6F13469B0013449B001A4687
:100F50007B6813441B6819462548FFF73DFC3A6F30
:100F600013469B0013449B001A467B6813440122DE
:100F70001A713A6F13469B0013449B001A467B6814
:100F800013447A6E9A603A6F13469B0013449B0099
:100F90001A467B681344FA6FDA607968F868FFF7DD
:100FA000D5FE18E03B6F01333B673A6F13469B0059
:100FB00013449B001A467B6813441B68002BB1D175
:100FC000BB6E002B07D0B96E0848FFF705FC02E0A6
:100FD00000BF00E000BF8037BD4680BD742B000815
:100FE0009C2B000840000020A02B0008B82B000814
:100FF000D82B0008014B1868704700BFAC000020D8
:101000008A89F8B5054610070C4657D44B68002B63
:1010100004DC0B6C002B01DC0020F8BDE66A002E1E
:10102000FAD0002312F480522F682B6032D0606D0A
:10103000A3895A0705D56368C01A636B0BB1236C8B
:10104000C01A00230246E66A2846216AB047431CBC
:10105000A38906D129681D292CD8294ACA40D60758
:1010600028D5002262602269D904226004D5421C7E
:1010700001D12B6803B96065616B2F600029CBD06B
:1010800004F14403994202D0284600F0AFF9002051
:101090006063C2E7216A01232846B047411CC7D1DB
:1010A0002B68002BC4D01D2B01D0162B01D12F6033
:1010B000B2E7A38943F04003A381AEE70F69002F95
:1010C000AAD0930718BF00230E6808BF4B69F61B10
:1010D0000F608B60002E9FDD33463A462846216A1A
:1010E000D4F828C0E047002806DCA3894FF0FF3081
:1010F00043F04003A38190E70744361AEAE700BFB4
:101100000100402038B50B6905460C4613B900258F
:10111000284638BD18B183690BB900F099F8144B13
:101120009C421BD16C68B4F90C30002BEFD0626E7E
:10113000D00704D4990502D4A06D00F04CF92846DC
:101140002146FFF75DFF636E0546DA07E0D4A38909
:101150009B05DDD4A06D00F03FF9D9E7054B9C421B
:1011600001D1AC68DFE7044B9C4208BFEC68DAE7CA
:10117000382C0008582C0008182C0008014620B90B
:10118000044B0549186800F0E1B8044B1868FFF7F4
:10119000B9BF00BF782C000805110008AC00002082
:1011A000002310B50446C0E90033C0E9043383606E
:1011B00081814366C2818361194608225C3000F058
:1011C0000CF9054B24626362044BA362044BE36297
:1011D000044B236310BD00BFD9160008FB1600089E
:1011E0003317000857170008014900F0AFB800BFD7
:1011F00005110008682270B54D1E55430E4605F1D5
:10120000740100F05BF9044640B10021C0E900160A
:101210000C30A06005F1680200F0DFF8204670BDD8
:10122000014800F0D8B800BF69010020014800F073
:10123000D3B800BF69010020014800F0CCB800BF5E
:101240006A010020014800F0C7B800BF6A01002011
:1012500010B50446FFF7F0FFA3691BB1BDE81040CD
:10126000FFF7F0BFC4E912332365134B134A1B6821
:10127000A262A34208BF0123204608BFA36100F079
:101280001FF86060204600F01BF8A060204600F0C8
:1012900017F800220421E0606068FFF781FF012257
:1012A0000921A068FFF77CFF02221221E068FFF706
:1012B00077FF0123A361D1E7782C0008E91100082A
:1012C000F8B50746FFF7ACFF1E4B1E68B36913B9AC
:1012D0003046FFF7BDFF4836D6E90134013B03D560
:1012E00033680BB33668F7E7B4F90C50D5B9164B31
:1012F00004F15800E360656600F06CF8FFF796FFB4
:1013000008222946C4E90155C4E904552560A561B0
:1013100004F15C0000F061F8C4E90D55C4E9125510
:101320002046F8BD6834D9E704213846FFF762FF4C
:10133000044630600028D5D1FFF778FF0C233B60CE
:10134000EEE700BF782C00080100FFFF2DE9F8430D
:1013500006468846002700F14804D4E90195B9F112
:10136000010905D52468002CF7D13846BDE8F8837B
:10137000AB89012B07D9B5F90E30013303D02946CB
:101380003046C04707436835E9E7000070B50026DE
:101390000C4D0D4C641BA410A64209D101F094F928
:1013A00000260A4D0A4C641BA410A64205D170BD4C
:1013B00055F8043B98470136EEE755F8043B98474B
:1013C0000136F2E7842D0008842D0008842D0008E2
:1013D000882D0008704770477047034602449342C7
:1013E00000D1704703F8011BF9E7000038B5054646
:1013F000002940D051F8043C0C1F002BB8BFE41862
:1014000000F0D6FB1C4A136833B9636014602846A9
:10141000BDE8384000F0D2BBA34208D920682118AB
:101420008B4201BF19685B6809182160EDE71A4615
:101430005B680BB1A342FAD911685018A0420BD1D6
:1014400020680144501883421160E0D118685B683D
:10145000014411605360DAE702D90C232B60D6E710
:10146000206821188B4201BF19685B680918216048
:1014700063605460CBE738BD6C01002070B50E4E40
:101480000C463168054611B900F016F93060214666
:10149000284600F011F9431C0AD0C41C24F00304B0
:1014A000A04207D0211A284600F006F9013001D1E8
:1014B0004FF0FF34204670BD700100202DE9F0414F
:1014C000CD1C25F0030508350C2D38BF0C25002D4B
:1014D000074601DBA94205D90C2300263B603046B4
:1014E000BDE8F0812E4E00F063FB33681C4634BB30
:1014F00029463846FFF7C2FF431C04464DD13468E5
:101500002646002E40D123683146384604EB0308B6
:1015100000F0D2F880453AD1216803356D1A25F0E4
:10152000030508350C2D38BF0C2538462946FFF732
:10153000A5FF01302BD023682B4423600EE02268E6
:10154000521B1ED40B2A16D96119A342256018BF5D
:101550005960636808BF316062514B60384604F1DE
:101560000B0600F02BFB26F00706231DF21AB6D05F
:101570009B1BA350B3E76268A3420CBF32605A6062
:10158000ECE723466468B2E734467668B9E70C2393
:1015900038463B6000F012FBA1E72560DEE700BFA4
:1015A0006C01002038B5084B05461C6824B1A369BE
:1015B00013B92046FFF74CFE29462046A268BDE835
:1015C000384000F04BBF00BFAC00002070B50E46A5
:1015D000054618B183690BB9FFF73AFEAB69AC68F1
:1015E00013B92846FFF734FE2C4B9C4220D16C687F
:1015F000636EDB0705D4A389980502D4A06DFFF7BD
:10160000EAFEA38919071DD52369DBB1013EA36852
:1016100016F8011F013BA36039BB002B38DA2246C4
:101620000A21284600F032F9013011D00A2511E0D4
:101630001B4B9C4201D1AC68DAE71A4B9C4208BFB5
:10164000EC68D5E72146284600F084F90028DDD073
:101650004FF0FF35636EDA0705D4A3899B0502D4EA
:10166000A06DFFF7B9FE284670BD002B04DAA26911
:101670009A4206DC0A2904D023685A1C2260197099
:10168000C5E72246284600F001F90130BFD1DFE767
:101690000A2523685A1C22601D70DBE7382C0008DD
:1016A000582C0008182C0008024B01461868FFF758
:1016B0008DBF00BFAC00002038B50023054D0446A7
:1016C00008462B60FEF73AFE431C02D12B6803B19B
:1016D000236038BD7401002010B50C46B1F90E101E
:1016E00000F004FF0028ABBF636DA3891B1823F42F
:1016F0008053ACBF6365A38110BD2DE9F0411F4647
:101700008B890546DB050C46164605D502230022CB
:10171000B1F90E1000F0CCF9A389324623F48053BE
:10172000A38128463B46B4F90E10BDE8F04100F015
:10173000FFB810B50C46B1F90E1000F0B9F9431C12
:10174000A38915BF606523F4805343F48053A381BC
:1017500018BFA38110BDB1F90E1000F087B90000C9
:10176000164B2DE9F0411F680546BC6D0E46ECB9DD
:10177000502000F015FA0246B86520B95721104BE9
:10178000104800F055F9C0E90044C0E90244C0E93E
:101790000444C0E90A44C0E90C44C0E90E44C0E96D
:1017A0001044C0E9124484610477446231462846FB
:1017B000BA6D0123BDE8F04100F006B8AC0000208E
:1017C0007C2C0008932C0008F0B508B9106888B18B
:1017D00004460F46204614F8015B17F8016B1EB94A
:1017E00065B92846156005E0B542F6D1002BF0D169
:1017F00014600370F0BD1C460CE015B90E4614F8D9
:10180000013B16F8015BAB42F7D1002BF3D000236C
:1018100004F8013C1460EDE730B51446002C054691
:101820001A469BB005DA8B2303604FF0FF301BB0E4
:1018300030BD4FF40273ADF80C300CBF234604F1F9
:10184000FF33029305934FF6FF7300910491ADF8B7
:101850000E3069461E9B00F013FA431CBCBF8B235D
:101860002B60002CE3D00022009B1A70DFE7000001
:1018700007B5009313460A46014603480068FFF780
:10188000CBFF03B05DF804FBAC000020F8B50E46BA
:101890001446054618B183690BB9FFF7D9FC214BF3
:1018A0009C422BD16C68A369A360A3891A072FD52A
:1018B00023696BB323692068F6B2C01A636937469F
:1018C000834204DC21462846FFF71CFC30BBA3689A
:1018D0000130013BA36023685A1C22601E706369BB
:1018E000834204D0A389DB0706D50A2E04D1214602
:1018F0002846FFF707FC88B93846F8BD0A4B9C42DA
:1019000001D1AC68CFE7094B9C4208BFEC68CAE73D
:101910002146284600F01EF80028CBD04FF0FF37B4
:10192000EAE700BF382C0008582C0008182C0008E3
:1019300038B50446084611460022054D2A601A466D
:10194000FEF7AFFC431C02D12B6803B1236038BD06
:1019500074010020324B70B51D6806460C4625B157
:10196000AB6913B92846FFF773FC2E4B9C420FD18D
:101970006C68A389B4F90C2019072CD4DD0611D4A6
:101980000923336042F040034FF0FF30A3813EE073
:10199000254B9C4201D1AC68EBE7244B9C4208BF2D
:1019A000EC68E6E7580712D5616B41B104F14403D6
:1019B000994202D03046FFF719FD00236363A389E3
:1019C00023F02403A3810023636023692360A38998
:1019D00043F00803A38123694BB9A38903F420735F
:1019E000B3F5007F03D02146304600F099F8A08976
:1019F000B4F90C2010F001030AD00023A36063693E
:101A00005B42A361236943B910F08000BAD170BD75
:101A1000810758BF6369A360F4E70020F7E700BFC0
:101A2000AC000020382C0008582C0008182C0008A6
:101A30001FB514461A46094B05461B68D8684CB1B9
:101A4000074BCDE9013400912B46064900F01EF802
:101A500000F05EFD044B1C46F3E700BFAC00002025
:101A6000132D0008202D00084E2D000838B5002346
:101A7000054D044608462B60FEF72FFC431C02D19F
:101A80002B6803B1236038BD740100200EB403B588
:101A9000014603AB054853F8042B0068019300F09E
:101AA00017FA02B05DF804EB03B07047AC000020F9
:101AB00038B50446084611460022054D2A601A46EC
:101AC000FEF72FFC431C02D12B6803B1236038BD05
:101AD0007401002070B50E46B1F90E1014460029AD
:101AE0001D4696B008DA0022B6F90C302A601A06B4
:101AF00010D44FF480630EE06A4600F011FD002818
:101B0000F1DB019A02F47042A2F500535A425A41A5
:101B10002A60EEE740230020236016B070BD00006D
:101B20008B8973B59D0706460C4607D504F147031C
:101B3000236023610123636102B070BD6A4601AB7B
:101B4000FFF7C8FF009905463046FFF7B7FC48B9D4
:101B5000B4F90C309A05EFD423F0030343F00203E9
:101B6000A381E3E70D4BB362A389206043F08003B8
:101B7000A381009B20616361019B5BB13046B4F996
:101B80000E1000F0DFFC28B1A38923F0030343F01B
:101B90000103A381A0890543A581CDE7E9110008D0
:101BA000024B01461868FFF789BC00BFAC0000205B
:101BB0000148FFF710BC00BF680100200148FFF793
:101BC0000BBC00BF680100202DE9F0478E688246FB
:101BD0009E420C4690461F4638D88A8912F4906F70
:101BE00032D0256809690133A5EB010965694B44C9
:101BF00005EB450505EBD5756D109D4238BF1D46BB
:101C0000530531D52946FFF759FC064650B90C2338
:101C10004FF0FF30CAF80030A38943F04003A3819E
:101C2000BDE8F0874A46216900F0AAFCA38923F4A5
:101C3000906343F08003A38126614E4426603E46B4
:101C40006561A5EB0905A560BE4200D93E46324656
:101C50004146206800F0A2FCA36800209B1BA36003
:101C6000236833442360DBE72A4600F0B1FC0646D4
:101C70000028E1D150462169FFF7B8FBC7E7000013
:101C80002DE9F04F98468B8907461B060D461446F2
:101C90009DB00ED50B6963B94021FFF70FFC28609A
:101CA000286120B90C233B604FF0FF30D1E0402386
:101CB0006B610023099320238DF8293030234FF0E6
:101CC0000109CDF80C80DFF8A4818DF82A30234675
:101CD0009A4613F8012B0AB1252AF9D1BAEB040B65
:101CE0000BD05B46224629463846FFF76DFF013090
:101CF00000F0AA80099A5A4409929AF80030002B01
:101D000000F0A28000234FF0FF32CDE905230AF155
:101D1000010A049307938DF853301A935446052211
:101D200014F8011B514800F01DFC049AD8B9D006E4
:101D300044BF20238DF85330110744BF2B238DF867
:101D400053309AF800302A2B15D0544600204FF01B
:101D50000A0C079A214611F8013B303B092B4ED95A
:101D6000B0B1079214E0A0EB080309FA03F31343A0
:101D7000A2460493D2E7039B191D1B680391002B15
:101D8000BBBF5B4242F0020207930793B8BF0492C5
:101D900023782E2B0CD163782A2B35D1039B023468
:101DA0001A1D1B680392002BB8BF4FF0FF33059339
:101DB000DFF8BCA003225046217800F0D3FB40B1ED
:101DC0004023A0EB0A0003FA00F0049B0134034314
:101DD000049314F8011B062226488DF8281000F001
:101DE000C1FB002838D0244B1BBB039B073323F0D7
:101DF000070308330393099B3344099367E70C46B1
:101E000001200CFB0232A5E700234FF00A0C194613
:101E100001340593204610F8012B303A092A03D9E2
:101E2000002BC5D00591C3E7044601230CFB01211B
:101E3000F0E703AB00932A463846104B04A9AFF3F2
:101E40000080421C0646D6D1AB895B063FF52CAF1D
:101E500009981DB0BDE8F08F03AB00932A463846C1
:101E6000064B04A900F0D4F9EBE700BF4F2D0008A2
:101E7000552D0008592D000800000000C91B00085E
:101E8000936810B4013B002B936007DA9469A34276
:101E900001DB0A2902D110BCFFF7F8BC1368581CFB
:101EA00010601970084610BC7047F8B506460F461A
:101EB0001446D518AC4201D1002007E03A4630461E
:101EC00014F8011BFFF7DCFF431CF3D1F8BD000041
:101ED0002DE9F04F0D461446984606469DB018B1C0
:101EE00083690BB9FFF7B4F9894B9D421BD1756823
:101EF0006B6ED90705D4AB899A0502D4A86DFFF79C
:101F00006AFAAB891B0701D52B69EBB92946304624
:101F1000FFF720FDC0B16B6EDC070ED54FF0FF3030
:101F20001DB0BDE8F08F7B4B9D4201D1B568DFE766
:101F3000794B9D4208BFF568DAE7AB899805EDD487
:101F4000A86DFFF749FAE9E70023099320238DF8EC
:101F5000293030234FF00109CDF80C80DFF8BC8127
:101F60008DF82A3023469A4613F8012B0AB1252A08
:101F7000F9D1BAEB040B0BD05B462246294630461A
:101F8000FFF793FF013000F0AA80099A5A440992A2
:101F90009AF80030002B00F0A28000234FF0FF32AF
:101FA000CDE905230AF1010A049307938DF8533014
:101FB0001A935446052214F8011B584800F0D2FA2F
:101FC000049AD8B9D10644BF20238DF853301307A3
:101FD00044BF2B238DF853309AF800302A2B15D0AC
:101FE000544600204FF00A0C079A214611F8013B95
:101FF000303B092B4ED9B0B1079214E0A0EB080397
:1020000009FA03F31343A2460493D2E7039B191D75
:102010001B680391002BBBBF5B4242F00202079397
:102020000793B8BF049223782E2B0CD163782A2B08
:1020300035D1039B02341A1D1B680392002BB8BFD5
:102040004FF0FF330593DFF8D8A0032250462178E4
:1020500000F088FA40B14023A0EB0A0003FA00F038
:10206000049B01340343049314F8011B06222D48FA
:102070008DF8281000F076FA00283FD02A4B1BBBC1
:10208000039B073323F0070308330393099B3B4467
:10209000099367E70C4601200CFB0232A5E70023F9
:1020A0004FF00A0C194601340593204610F8012B15
:1020B000303A092A03D9002BC5D00591C3E704465D
:1020C00001230CFB0121F0E703AB00932A463046C5
:1020D000164B04A9AFF300800746781CD6D16B6E6F
:1020E000D90705D4AB899A0502D4A86DFFF774F916
:1020F000AB895B063FF512AF099811E703AB00937C
:102100002A463046094B04A900F082F8E4E700BFF4
:10211000382C0008582C0008182C00084F2D0008F7
:10212000552D0008592D000800000000AB1E0008C6
:102130002DE9F047164699468A680B69074693428F
:10214000B8BF1346336091F843200C46DDF8208079
:102150000AB1013333602368990642BF3368023302
:102160003360256815F0060506D104F1190AE36805
:1021700032689B1AAB4228DC94F84320131E226875
:1021800018BF012392062DD44946384604F1430274
:10219000C047013020D02368E56803F00603042B14
:1021A00018BF002532684FF00006A36808BFAD1ABB
:1021B000226908BF25EAE5759342C4BF9B1AED1852
:1021C0001A34B5421AD1002008E00123524649468C
:1021D0003846C047013003D14FF0FF30BDE8F087EB
:1021E0000135C4E73020E11881F843005A1C94F807
:1021F00045102244023382F84310C5E701232246EA
:1022000049463846C0470130E6D00136D9E70000DC
:102210002DE9FF470F7E9146782F80460C469A465F
:102220000C9D01F1430207D8622F0AD8002F00F05D
:10223000D980582F00F0A48004F1420584F8427040
:102240003AE0A7F16303152BF6D801A151F823F06A
:10225000A9220008BD2200083922000839220008FE
:102260003922000839220008BD220008392200085E
:10227000392200083922000839220008CB2300083F
:10228000ED220008AD230008392200083922000899
:10229000ED23000839220008ED2200083922000849
:1022A00039220008B52300082B681A1D1B682A6014
:1022B00004F1420584F842300123A4E02068296833
:1022C000060601F104030AD50E682B60002E03DA1E
:1022D0002D23764284F843300A235E4819E00E68C5
:1022E00010F0400F2B6018BF36B2EFE72B68206864
:1022F000191D2960010601D51E6802E04606FBD5BE
:102300001E886F2F0CBF08230A235248002184F82F
:1023100043106568002DA8BF2168A560A4BF21F007
:10232000040121600EB9002D4DD01546B6FBF3F126
:1023300003FB1167C75D05F8017D3746BB420E46BA
:10234000F4D9082B0BD12368DE0708D5236961680F
:102350009942DEBF302305F8013C05F1FF35521BE1
:1023600022614B4621464046CDF800A003AAFFF764
:10237000DFFE01304CD14FF0FF3004B0BDE8F087F4
:10238000344881F845702968236851F8046B296046
:102390001D0614D5DF0744BF43F0200323601EB998
:1023A000236823F0200323601023AFE7236843F062
:1023B000200323607823284884F84530E3E7590652
:1023C00048BFB6B2E6E71546BBE72B682668181D7E
:1023D0006169286035061B6801D5196002E0700646
:1023E000FBD51980002315462361BAE72B6800212D
:1023F0001A1D2A601D686268284600F0B3F808B10B
:10240000401B606063682361002384F84330A8E7C1
:102410002A46494640462369D0470130ABD023685D
:102420009B0713D4E068039B9842B8BF1846A4E703
:102430000123324649464046D04701309BD0013502
:10244000E36803995B1AAB42F2DCEBE7002504F189
:102450001906F5E7602D0008712D000870B50D46CE
:102460001446064618B183690BB9FEF7F1FE1C4B02
:102470009C4224D17468636ED80705D4A38999055A
:1024800002D4A06DFEF7A7FFA368013B002BA36059
:1024900005DAA26993421CDBEBB20A2B19D0236840
:1024A0005A1C22601D70EDB2636EDA0705D4A38951
:1024B0009B0502D4A06DFEF78FFF284670BD094B27
:1024C0009C4201D1B468D6E7074B9C4208BFF46830
:1024D000D1E7294622463046FFF7D8F90546E3E71B
:1024E000382C0008582C0008182C000838B5044671
:1024F000084611460022054D2A601A46FDF7B4FE33
:10250000431C02D12B6803B1236038BD7401002045
:10251000062008B500F0B4F80120FDF79BFE00008E
:1025200038B50023064D0446084611462B60FDF7DA
:10253000DFFE431C02D12B6803B1236038BD00BF0E
:102540007401002038B50023054D044608462B6071
:10255000FDF7DDFE431C02D12B6803B1236038BDBB
:1025600074010020034610B5C9B2024493421846D4
:1025700001D1002003E0047801338C42F6D110BD74
:102580000A44914200F1FF3300D1704710B511F8B1
:10259000014B914203F8014FF9D110BD884210B5AB
:1025A00001EB020402D98442234607D8431EA1420C
:1025B00008D011F8012B03F8012FF8E70146024477
:1025C0008A4200D110BD13F8014D02F8014DF7E722
:1025D0002DE9F041804614460E4621B91146BDE86A
:1025E000F041FEF76BBF2AB9FEF700FF25462846EB
:1025F000BDE8F08100F060F88442074602D8B4EBF1
:10260000500F12D821464046FEF758FF05460028D5
:10261000EDD0BC422246314628BF3A46FFF7B0FF14
:1026200031464046FEF7E2FEE1E73546DFE71F2987
:1026300038B504460D4604D9162303604FF0FF3029
:1026400038BD426C12B152F821304BB9204600F02F
:1026500031F82A4601462046BDE8384000F018B857
:10266000012B0AD0591C03D1162303600120E7E790
:102670000024284642F8254098470020E0E7000063
:10268000024B01461868FFF7D2BF00BFAC00002024
:1026900038B50023064D0446084611462B60FDF769
:1026A000C9FD431C02D12B6803B1236038BD00BFB4
:1026B00074010020FDF7B7BD51F8043C181F002B32
:1026C000BCBF0B58C0187047F8B500BFF8BC08BCB9
:1026D0009E467047F8B500BFF8BC08BC9E467047E0
:1026E000636F727465782D6D3300000041646D690D
:1026F0006E000000313333393930000053544D330C
:10270000324631303343385436000000426172653E
:102710004D6574616C00000053544D3332463100F6
:10272000312E302E300000001B5B324A00000000CA
:102730001B5B48005348454C4C5F56455253494F2C
:102740004E3A2025642E25642E25640A00000000E0
:102750004172636869746563747572653A202573A4
:102760000A0000004172636869746563747572657C
:102770003A1B5B33316D20556E6B6E6F776E1B5B52
:10278000306D0000446576696365204E616D653A81
:102790002025730A00000000556E6B6E6F776E0087
:1027A000446576696365204E616D653A1B5B333124
:1027B0006D20556E6B6E6F776E1B5B306D00000089
:1027C0004F7065726174696E672053797374656DBB
:1027D0003A2025730A0000004F7065726174696EBB
:1027E000672053797374656D3A1B5B33316D4E6F9F
:1027F000204F531B5B306D00446576696365204D47
:102800006F64656C3A2025730A00000044657669A0
:102810006365204D6F64656C3A1B5B33316D2055E9
:102820006E6B6E6F776E1B5B306D0000566572735A
:10283000696F6E3A2025730A0000000056657273B6
:10284000696F6E3A1B5B33316D20556E6B6E6F771F
:102850006E1B5B306D000000557365723A20257366
:102860000A000000557365723A1B5B33316D2055C9
:102870006E6B6E6F776E1B5B306D00005061737313
:10288000776F72643A2025730A00000050617373F9
:10289000776F72643A1B5B33316D20556E6B6E6FD0
:1028A000776E1B5B306D0000546865204D435520EA
:1028B0005368656C6C2069732073746172740000D6
:1028C000496620796F75206665656C20697420699A
:1028D000732075736566756C2C20706C656173650B
:1028E0002067697665206D652061207374617220B0
:1028F0006F6E20476974487562203C285E5F5E29D0
:102900003E202D3E200000001B5B346D6874747007
:10291000733A2F2F6769746875622E636F6D2F6B22
:10292000746B7572693133322F6472697665725FC8
:10293000617069732E6769740A1B5B306D0000005B
:1029400054797065202768656C702720666F722047
:1029500061206C697374206F6620636F6D6D616EAA
:1029600064732E0A0A0000001B5B33326D25731B53
:102970005B306D4025733E20000000001B5B306D16
:10298000000000000820080068656C6C6F00000003
:102990007265736574000000706F7765726F6666AC
:1029A0000000000068656C700000000065786974C4
:1029B00000000000636C6561720000007465737450
:1029C000000000006C73000048656C6C6F2C205791
:1029D0006F726C64210000005265626F6F74696EE3
:1029E000672E2E2E000000001B5B33316D72657365
:1029F000657420636F6D6D616E64206E6F74206905
:102A00006D706C656D656E7465642E43617573657C
:102A10002069732061204E554C4C20706F696E7494
:102A20000A1B5B306D000000506F776572696E673E
:102A3000206F66662E2E2E001B5B33316D706F7714
:102A400065726F666620636F6D6D616E64206E6F78
:102A50007420696D706C656D656E7465642E43617C
:102A60007573652069732061204E554C4C20706F42
:102A7000696E740A1B5B306D00000000417661696D
:102A80006C61626C6520636F6D6D616E64733A009A
:102A90002D2025730A0000001B5B33316D6C732001
:102AA000636F6D6D616E64206E6F7420696D706C04
:102AB000656D656E7465642E436175736520697319
:102AC0002061204E554C4C20706F696E740A1B5B60
:102AD000306D0000436C656172696E6720736372CC
:102AE00065656E2E2E2E00001B5B33316D636C65A9
:102AF000617220636F6D6D616E64206E6F7420690A
:102B00006D706C656D656E7465642E43617573657B
:102B10002069732061204E554C4C20706F696E7493
:102B20000A1B5B306D00000045786974696E672E82
:102B30002E2E00001B5B33316D7465737420636F40
:102B40006D6D616E64206E6F7420696D706C656D63
:102B5000656E7465642E43617573652069732061C9
:102B6000204E554C4C20706F696E740A1B5B306DA3
:102B7000000000001B5B33316D4572726F723A20AA
:102B80005368656C6C206E6F7420696E697469613E
:102B90006C697A65642E0A1B5B306D0020000000B2
:102BA000457865637574696E6720636F6D6D616EDE
:102BB000643A2025730A00001B5B33316D436F6D4F
:102BC0006D616E64206E6F7420666F756E643A205E
:102BD00025730A1B5B306D00457865637574696EFB
:102BE0006720656E7669726F6E6D656E74207661B2
:102BF000726961626C6520636F6D6D616E643A200D
:102C000025730A005573657200000000556E6B6EE7
:102C10006F776E4D4355000000000000000000007B
:102C200000000000000000000000000000000000A4
:102C30000000000000000000000000000000000094
:102C40000000000000000000000000000000000084
:102C50000000000000000000000000000000000074
:102C60000000000000000000000000000000000064
:102C70000000000000000000B00000205245454E5A
:102C800054206D616C6C6F6320737563636565645C
:102C90006564002F6D6E742F776F726B7370616354
:102CA000652F776F726B73706163652F4743432D98
:102CB00031302D706970656C696E652F6A656E6B59
:102CC000696E732D4743432D31302D706970656CEB
:102CD000696E652D3333385F3230323131303138FF
:102CE0005F313633343531363230332F7372632FE0
:102CF0006E65776C69622F6E65776C69622F6C699F
:102D000062632F737472696E672F737472746F6B62
:102D10002E63002C2066756E6374696F6E3A200016
:102D2000617373657274696F6E2022257322206649
:102D300061696C65643A2066696C6520222573229E
:102D40002C206C696E65202564257325730A002389
:102D50002D302B2000686C4C0065666745464700A7
:102D600030313233343536373839414243444546C1
:102D70000030313233343536373839616263646557
:042D800066000000E9
:042D840055010008ED
:042D8800310100080D
:102D8C0000A24A0400000000000000000000000047
:102D9C000000000000000000000000000000000027
:102DAC00A1070008E0260008EC260008F42600081D
:102DBC00FC2600080C27000818270008202700080C
:102DCC00882900089029000898290008A4290008DF
:102DDC00AC290008B4290008BC290008C429000843
:102DEC0000000000000000000000000000000000D7
:102DFC0000000000000000000000000000000000C7
:102E0C0000000000000000000000000000000000B6
:102E1C0098270008042C0008982700080C2C0008A0
:102E2C00982700089827000898270008B000002071
:102E3C0000000000382C0008582C0008182C000842
:102E4C000000000000000000000000000000000076
:102E5C000000000000000000000000000000000066
:102E6C000000000000000000000000000000000056
:102E7C000000000000000000000000000000000046
:102E8C000000000000000000000000000000000036
:040000050800018569
:00000001FF
